:100000000C9446000C9465000C9465000C946500FB
:100010000C9465000C9465000C9465000C946500CC
:100020000C9465000C9465000C9465000C946500BC
:100030000C9465000C9469010C9465000C946500A7
:100040000C9465000C9465000C9465000C9465009C
:100050000C9465000C9465000C9465000C9465008C
:100060000C9465000C9465000C9465000C9465007C
:100070000C9465000C9465000C9465000C9465006C
:100080000C9465000C9465000C94650011241FBE4F
:10009000CFEFD0E4DEBFCDBF11E0A0E0B1E0E0E300
:1000A000F7E100E00BBF02C007900D92A432B10748
:1000B000D9F721E0A4E2B1E001C01D92A23BB20752
:1000C000E1F70E94EC020C94960B0C940000CF9385
:1000D000DF9300D01F92CDB7DEB789837B836A831D
:1000E00089818A3031F48A819B81BC018DE00E9434
:1000F000670080EC90E0FC018081882F90E08072A6
:100100009927892BB1F386EC90E02981FC012083AB
:1001100080E090E00F900F900F90DF91CF910895C5
:10012000CF93DF9300D01F92CDB7DEB789836A8368
:100130004B838B81882371F08A81282F30E081E006
:1001400090E002C0880F991F2A95E2F7982F8981C5
:10015000892B0EC08A81282F30E081E090E002C018
:10016000880F991F2A95E2F7982F90958981892306
:100170000F900F900F90DF91CF910895CF93DF9361
:1001800000D0CDB7DEB789836A838A81282F30E01B
:1001900081E090E002C0880F991F2A95E2F7982F1E
:1001A000898189230F900F90DF91CF910895CF938C
:1001B000DF93CDB7DEB780E290E0FC0180818095CF
:1001C000DF91CF910895CF93DF93CDB7DEB70E9433
:1001D000D700982F81E0913009F080E0DF91CF9136
:1001E0000895CF93DF93CDB7DEB70E94D700982F45
:1001F00081E0923009F080E0DF91CF910895CF93B4
:10020000DF93CDB7DEB70E94D700982F81E09430FE
:1002100009F080E0DF91CF910895CF93DF93CDB7C0
:10022000DEB70E94D700982F81E0983009F080E077
:10023000DF91CF910895CF93DF93CDB7DEB781E003
:10024000809324010000DF91CF910895CF93DF9335
:10025000CDB7DEB781E890E0FC0110820000DF91AD
:10026000CF910895CF93DF93CDB7DEB781E890E0CB
:100270002BE0FC01208388E890E02DE730E0FC01D2
:10028000318320838FE690E022E0FC01208384E824
:1002900090E0FC011182108280910E0190910F017B
:1002A000A0911001B0911101809325019093260136
:1002B000A0932701B09328018FE590E02FE530E06F
:1002C000F90120812068FC0120830000DF91CF919B
:1002D00008951F920F9200905F000F9211240090DA
:1002E0005B000F922F933F934F935F936F937F9396
:1002F0008F939F93AF93BF93EF93FF93CF93DF932E
:10030000CDB7DEB78091250190912601A0912701FC
:10031000B09128010197A109B1098093250190931B
:100320002601A0932701B093280180912501909187
:100330002601A0912701B0912801892B8A2B8B2BB4
:1003400091F40E941B0180910E0190910F01A091E8
:100350001001B09111018093250190932601A09383
:100360002701B09328010000DF91CF91FF91EF9119
:10037000BF91AF919F918F917F916F915F914F91BD
:100380003F912F910F9000925B000F9000925F00C1
:100390000F901F901895CF93DF9300D000D0CDB76A
:1003A000DEB769837A838B839C8389819A81AB8151
:1003B000BC8180930E0190930F01A0931001B09324
:1003C000110180910E0190910F01A0911001B09147
:1003D00011018093250190932601A0932701B093EA
:1003E000280100000F900F900F900F90DF91CF9198
:1003F0000895CF93DF93CDB7DEB72C970FB6F8945F
:10040000DEBF0FBECDBF6D837E838F839887298724
:100410003A874B875C878D819E81AF81B88529851E
:100420003A854B855C85BC01CD010E94C50ADC0183
:10043000CB0189839A83AB83BC8389819A81AB8109
:10044000BC81892B8A2B8B2B29F489859A85AB85D6
:10045000BC8511C089859A85AB85BC858D839E83BB
:10046000AF83B88789819A81AB81BC8189879A875C
:10047000AB87BC87D0CFBC01CD012C960FB6F894CA
:10048000DEBF0FBECDBFDF91CF910895CF93DF9335
:1004900000D000D01F92CDB7DEB79A8389837C83CA
:1004A0006B834D8389819A819C01220F331F220F18
:1004B000331F220F331F8B819C81820F931F825A1F
:1004C0009E4F2D81FC01208300000F900F900F9014
:1004D0000F900F90DF91CF910895CF93DF9300D0CD
:1004E00000D0CDB7DEB79A8389837C836B83898103
:1004F0009A81059724F48B819C81089714F080E001
:1005000011C089819A819C01220F331F220F331F52
:10051000220F331F8B819C81820F931F825A9E4F23
:10052000FC0180810F900F900F900F90DF91CF9181
:100530000895CF93DF9300D000D01F92CDB7DEB7E0
:100540009A8389837C836B834D8389819A819C0103
:10055000220F331F220F331F220F331F8B819C81E9
:10056000820F931F8A579E4F2D81FC01208300002C
:100570000F900F900F900F900F90DF91CF910895F3
:10058000CF93DF9300D000D0CDB7DEB79A838983B5
:100590007C836B8389819A81059724F48B819C816C
:1005A000089714F080E011C089819A819C01220F84
:1005B000331F220F331F220F331F8B819C81820F29
:1005C000931F8A579E4FFC0180810F900F900F90D0
:1005D0000F90DF91CF9108950F931F93CF93DF93E7
:1005E000CDB7DEB761970FB6F894DEBF0FBECDBFB3
:1005F00081E290E0FC01108282E290E02FEFFC01AA
:10060000208384E290E02FEFFC01208385E290E0DC
:10061000FC01108287E290E02FEFFC01208388E24A
:1006200090E0FC0110828AE290E02FEFFC01208331
:100630008BE290E0FC01108280E090E00E949E0A34
:10064000DC01CB010E944A0B88E0ECE1F1E0DE0125
:100650001A9601900D928A95E1F784E090E09887D0
:100660008F838FEF89878FEF9FEFDC0189839A83D8
:10067000AB83BC8389858093320182E390E0A0E064
:10068000B0E08093330190933401A0933501B0938F
:1006900036018091330190913401A0913501B091E0
:1006A00036018093370190933801A0933901B093BC
:1006B0003A018EEE94E090933C0180933B01898552
:1006C00080933D018CE291E0A0E0B0E080933E0198
:1006D00090933F01A0934001B093410180913E016E
:1006E00090913F01A0914001B0914101809342015E
:1006F00090934301A0934401B093450188EC97E0A7
:10070000909347018093460189858093480188E54D
:1007100092E0A0E0B0E08093490190934A01A09359
:100720004B01B0934C018091490190914A01A091F5
:100730004B01B0914C0180934D0190934E01A093D9
:100740004F01B09350018CEC98E09093520180934C
:10075000510189858093530181E090E0A0E0B0E0F1
:100760008093540190935501A0935601B093570183
:100770008091540190915501A0915601B09157017B
:100780008093580190935901A0935A01B0935B0153
:1007900082E199E090935D0180935C011E821D824D
:1007A00040C08D819E81892BB9F48D819E81880FF7
:1007B000991F9E012F5F3F4F820F931F0996FC01E7
:1007C00080819181FC0181819281A381B48189839F
:1007D0009A83AB83BC8320C08D819E81880F991F33
:1007E0009E012F5F3F4F820F931F0996FC0180816E
:1007F0009181FC01218132814381548189819A81D7
:10080000AB81BC81BC01CD010E94F901DC01CB01AF
:1008100089839A83AB83BC838D819E8101969E835D
:100820008D832D813E818F8198852817390708F4A3
:10083000B8CF1E821D8211C08D819E81825A9E4F2B
:10084000FC0110828D819E818A579E4FFC0110828F
:100850008D819E8101969E838D838D819E81889757
:1008600058F389819A81AB81BC81BC01CD010E9482
:10087000CB010E9432011E821D82A0C08D819E810B
:10088000880F991F9E012F5F3F4F820F931F09967C
:10089000FC0180819181FC01258136814781508551
:1008A0008D819E81880F991FBE016F5F7F4F860FDC
:1008B000971F0996FC0180819181FC0181819281C1
:1008C000A381B481281739074A075B0709F045C09F
:1008D0008D819E81880F991F9E012F5F3F4F820F50
:1008E000931F0996FC01008111818D819E81880FE3
:1008F000991F9E012F5F3F4F820F931F0996FC01A6
:1009000080819181FC01218532858D819E81880FB6
:10091000991FAE014F5F5F4F840F951F0996FC0131
:1009200080819181FC018081082E000C990BF901D6
:100930000995F80180838D819E81880F991F9E0102
:100940002F5F3F4F820F931F0996FC018081918199
:10095000FC0115821682178210868D819E81880F78
:10096000991F9E012F5F3F4F820F931F0996FC0135
:10097000608171818D819E81880F991F9E012F5FFB
:100980003F4F820F931F0996FC0180819181FC01EA
:10099000258136814781508589819A81AB81BC81CF
:1009A000820F931FA41FB51FFB0185839683A78326
:1009B000B0878D819E8101969E838D832D813E819E
:1009C0008F8198852817390708F458CF0000809147
:1009D00024018823E1F3109224014DCFCF93DF93BC
:1009E00000D0CDB7DEB79A83898389819A81009739
:1009F00019F0019731F00AC081E090E09A83898371
:100A000008C081E090E09A83898303C01A8219822A
:100A1000000089819A81009719F0019729F023C07D
:100A200084E0809312011FC00E94E300882319F024
:100A30001092120117C00E94F100882321F081E07A
:100A4000809312010FC00E94FF00882321F082E0F2
:100A50008093120107C00E940D01882319F083E0E2
:100A600080931201000089819A810F900F90DF918D
:100A7000CF910895CF93DF9300D000D000D0CDB7B1
:100A8000DEB79A8389837C836B835E834D838D81FC
:100A90009E81019749F42B813C8189819A8140E0B4
:100AA000B9010E94990291C08B819C819C012150C7
:100AB000310989819A81B9010E94C002282F30E052
:100AC0008D819E8101972817390781F48D819E8140
:100AD000AC01415051098B819C819C01215031090D
:100AE00089819A81B9010E943A055DC08B819C8100
:100AF0009C012F5F3F4F89819A81B9010E94C002FA
:100B0000282F30E08D819E8101972817390781F4C5
:100B10008D819E81AC01415051098B819C819C014A
:100B20002F5F3F4F89819A81B9010E943A053BC0EE
:100B300089819A8101962B813C81B9010E94C00272
:100B4000282F30E08D819E8101972817390771F495
:100B50008D819E81AC014150510989819A81019614
:100B60002B813C81B9010E943A051DC089819A817F
:100B700001972B813C81B9010E94C002282F30E0EF
:100B80008D819E81019728173907F1F48D819E810F
:100B9000AC014150510989819A8101972B813C8197
:100BA000B9010E943A052B813C8189819A81B90162
:100BB0000E94C0024FEF480F2B813C8189819A81AE
:100BC000B9010E94990201C0000026960FB6F89460
:100BD000DEBF0FBECDBFDF91CF910895EF920F938F
:100BE0001F93CF93DF93CDB7DEB72C970FB6F89452
:100BF000DEBF0FBECDBF9B838A837D836C835F8303
:100C00004E83398728871B870A87EC868A859B85D0
:100C1000019709F431C18C819D819C0121503109DA
:100C20008A819B810197B9010E94C0028823C1F487
:100C30008C858823A9F08C819D819C0121503109EC
:100C400088859985FC01318320838A819B819C0161
:100C5000215031098E819F81FC01318320830FC196
:100C60008C819D819C012F5F3F4F8A819B810197E1
:100C7000B9010E94C0028823C1F48C858823A9F0A1
:100C80008C819D819C012F5F3F4F88859985FC0158
:100C9000318320838A819B819C01215031098E817F
:100CA0009F81FC0131832083EAC08C819D819C015E
:100CB000215031098A819B810196B9010E94C002AD
:100CC0008823C1F48C858823A9F08C819D819C01A7
:100CD0002150310988859985FC01318320838A81DF
:100CE0009B819C012F5F3F4F8E819F81FC0131834F
:100CF0002083C5C08C819D819C012F5F3F4F8A81DD
:100D00009B810196B9010E94C0028823C1F48C85A1
:100D10008823A9F08C819D819C012F5F3F4F88859E
:100D20009985FC01318320838A819B819C012F5FFF
:100D30003F4F8E819F81FC0131832083A0C0809131
:100D400015018695282F30E041E08A859B85821722
:100D500093070CF040E049838C819D819C012150D8
:100D600031098A819B81B9010E94C002282F30E09D
:100D70008A859B85019728173907A1F48A859B8569
:100D8000FC0131978C819D81BC01615071092885DE
:100D900039854E815F818A819B81E9808F010E9424
:100DA000EE056DC08C819D819C012F5F3F4F8A8134
:100DB0009B81B9010E94C002282F30E08A859B8563
:100DC000019728173907A1F48A859B85FC01319783
:100DD0008C819D81BC016F5F7F4F288539854E8155
:100DE0005F818A819B81E9808F010E94EE0547C067
:100DF0008A819B8101962C813D81B9010E94C002AC
:100E0000282F30E08A859B8501972817390791F4B0
:100E10008A859B85FC0131978A819B810196288573
:100E200039854E815F816C817D81E9808F010E94CF
:100E3000EE0525C08A819B8101972C813D81B901F6
:100E40000E94C002282F30E08A859B8501972817D1
:100E50003907A1F48A859B85FC0131978A819B81A2
:100E60000197288539854E815F816C817D81E9807C
:100E70008F010E94EE0503C0000001C000002C9607
:100E80000FB6F894DEBF0FBECDBFDF91CF911F919B
:100E90000F91EF900895EF920F931F93CF93DF93ED
:100EA000CDB7DEB727970FB6F894DEBF0FBECDBF24
:100EB00019821B821A828FEF9FEF9D838C838FEFA5
:100EC0009FEF9F838E838A819B810A97FCF080919C
:100ED0001501E82FF0E080911401682F70E08091F7
:100EE0001301882F90E09E012C5F3F4FAE014A5FB7
:100EF0005F4FE12C8F010E94EE058C819D81019650
:100F0000F9F48E819F810196D9F436C00E94460B78
:100F100087709078992324F40197886F9F6F0196CA
:100F20009D838C830E94460B25E030E0B9010E942E
:100F3000B10A9F838E838A819B8101969B838A83DA
:100F40002C813D818E819F81B9010E94C00288233E
:100F500071F48C819D81809316018E819F81809395
:100F60002A0181E080932B0181E0898301C0000088
:100F70008981882309F49FCF27960FB6F894DEBFA6
:100F80000FBECDBFDF91CF911F910F91EF900895CC
:100F9000CF93DF9300D000D0CDB7DEB79C838B8397
:100FA0008B819C81009719F0019731F00AC081E094
:100FB00090E09C838B8308C081E090E09C838B83CE
:100FC00003C01C821B8200008B819C81009719F05A
:100FD000019799F0D8C080911401282F30E08091BA
:100FE0001301882F90E041E0B9010E94990285E247
:100FF00090E021E0FC012083C6C080911201882F7F
:1010000090E081309105F1F0823091051CF4892B3C
:1010100039F04EC08230910539F10397B9F148C0DB
:1010200080911401873031F481E0809329018B8114
:101030009C81ABC0809114018F5F8A8380911301E2
:1010400089833DC080911301843031F481E0809325
:1010500029018B819C8199C0809114018A838091A0
:1010600013018F5F89832BC080911401882331F491
:1010700081E0809329018B819C8187C0809114013C
:1010800081508A8380911301898319C08091130153
:10109000882331F481E0809329018B819C8175C084
:1010A000809114018A83809113018150898307C044
:1010B000809114018A8380911301898300008A81C1
:1010C000282F30E08981882F90E0B9010E94C0026A
:1010D000882351F080911201843030F481E08093B4
:1010E00029018B819C8151C080912B01882319F1AA
:1010F00080912A0199819817F1F4809116019A81C3
:101100009817C9F4809115018F5F80931501409164
:1011100015018A81282F30E08981882F90E0B9015C
:101120000E94990210922B0185E290E02091150116
:10113000FC01208321C0809112018430E8F4809169
:10114000150141E0480F8A81282F30E08981882FDE
:1011500090E0B9010E94990280911501882F90E0DA
:10116000AC014F5F5F4F8A81282F30E08981882F43
:1011700090E0B9010E943A058A8180931401898127
:101180008093130100008B819C810F900F900F9032
:101190000F90DF91CF910895CF93DF9300D0CDB71B
:1011A000DEB79A83898389819A818130910551F0D4
:1011B0008230910581F0892BB9F481E090E09A8327
:1011C000898318C080912B01882389F082E090E008
:1011D0009A8389830CC080912B01882351F481E08C
:1011E00090E09A83898305C01A82198203C00000A7
:1011F00001C0000089819A818130910531F08230EF
:10120000910531F0892B31F006C00E944B0703C0D5
:10121000000001C0000089819A810F900F90DF913A
:10122000CF910895CF93DF93CDB7DEB763970FB615
:10123000F894DEBF0FBECDBF9B8B8A8B8A899B89BA
:101240008130910589F0823091051CF4892B39F0A9
:1012500030C082309105B1F0039711F12AC081E0CE
:1012600090E09B8B8A8B29C080912901882329F0EB
:1012700083E090E09B8B8A8B20C082E090E09B8B88
:101280008A8B1BC080912901882329F083E090E09C
:101290009B8B8A8B12C081E090E09B8B8A8B0DC068
:1012A00080912901882341F481E090E09B8B8A8B17
:1012B00003C01B8A1A8A01C000008A899B89813079
:1012C000910579F08230910524F4892B09F428C125
:1012D0002AC18230910509F442C0039709F4A4C0E1
:1012E00022C11A82198225C01C821B8219C02B813F
:1012F0003C8189819A81B9010E94C002982F81E0C6
:10130000992309F480E0482F2B813C8189819A81BF
:10131000B9010E9446028B819C8101969C838B833C
:101320008B819C8108971CF389819A8101969A830D
:10133000898389819A810597BCF280912B0188234A
:1013400009F4F0C080911601282F30E080912A0125
:10135000882F90E041E0B9010E944602E3C08091ED
:101360002D01883010F010922D011D821F821E82E7
:1013700028C081E088871A86198608C08885880F6A
:10138000888789859A8501969A87898729853A85EC
:101390008E819F81281739078CF380912D01282F8A
:1013A00030E08E819F81B9010E946D02882321F077
:1013B0009D818885890F8D838E819F8101969F8372
:1013C0008E838E819F810597A4F28D818093170172
:1013D00081E08B871D861C8608C08B85880F8B87D4
:1013E0008C859D8501969D878C8780912D01282F66
:1013F00030E08C859D85821793077CF38B858093E5
:101400002C0188E290E020912C01FC0120838BE2EA
:1014100090E0209117012095FC01208380912D01FF
:101420008F5F80932D017FC010922C018FEF8093EE
:10143000170188E290E020912C01FC0120838BE2CF
:1014400090E020911701FC01208380912E01909162
:101450002F01A0913001B091310188389341A1054D
:10146000B10508F449C010922E0110922F0110927C
:101470003001109231011092290181E08093150111
:1014800010922B0182E08093130184E08093140179
:1014900084E0809312011E861F86188A198A17C05D
:1014A0008E859F85825A9E4FFC0110828E859F8576
:1014B0008A579E4FFC0110828E859F85A889B98925
:1014C0000196A11DB11D8E879F87A88BB98B8E8534
:1014D0009F85A889B9898897A105B10508F38091EE
:1014E0001401282F30E080911301882F90E041E013
:1014F000B9010E94990217C080912E0190912F018D
:10150000A0913001B09131010196A11DB11D8093D0
:101510002E0190932F01A0933001B093310103C0AD
:10152000000001C000008A899B8963960FB6F89479
:10153000DEBF0FBECDBFDF91CF910895FC010FB686
:10154000F8946091AE017091AF018091B0019091DB
:10155000B1010FBE309721F0608371838283938342
:10156000089597FB072E16F4009407D077FD09D055
:101570000E94E70A07FC05D03EF4909581959F4FA5
:101580000895709561957F4F0895A1E21A2EAA1BC8
:10159000BB1BFD010DC0AA1FBB1FEE1FFF1FA21723
:1015A000B307E407F50720F0A21BB30BE40BF50B20
:1015B000661F771F881F991F1A9469F760957095A9
:1015C000809590959B01AC01BD01CF010895AA1BA8
:1015D000BB1B51E107C0AA1FBB1FA617B70710F01E
:1015E000A61BB70B881F991F5A95A9F78095909550
:1015F000BC01CD0108958F929F92AF92BF92CF927E
:10160000DF92EF92FF92CF93DF93EC0168817981B3
:101610008A819B81611571058105910521F464E240
:1016200079ED8BE597E02DE133EF41E050E00E944A
:10163000550B49015A019B01AC01A7EAB1E40E9494
:10164000740B6B017C01ACEEB4EFA50194010E9418
:10165000820BDC01CB018C0D9D1DAE1DBF1DB7FFA4
:1016600003C00197A109B04888839983AA83BB83EB
:101670009F77DF91CF91FF90EF90DF90CF90BF9059
:10168000AF909F908F9008950C94FB0A88E191E0B1
:101690000C94FB0AA0E0B0E080931801909319012C
:1016A000A0931A01B0931B010895052E97FB1EF419
:1016B00000940E946C0B57FD07D00E94C50A07FCDE
:1016C00003D04EF40C946C0B5095409530952195B9
:1016D0003F4F4F4F5F4F089590958095709561955E
:1016E0007F4F8F4F9F4F08950E94870BA59F900DAE
:1016F000B49F900DA49F800D911D11240895B7FFF4
:101700000C94740B0E94740B821B930B0895A29F80
:10171000B001B39FC001A39F700D811D1124911DC5
:10172000B29F700D811D1124911D0895F894FFCF73
:10173000000000020000000067000000000001003F
:1017400000000402040101FF0100000032013D011C
:0417500048015301F8
:00000001FF
